{
  "contracts/NativeBank.sol": {
    "NativeBank": {
      "abi": [
        {
          "inputs": [],
          "stateMutability": "nonpayable",
          "type": "constructor"
        },
        {
          "inputs": [
            {
              "internalType": "address",
              "name": "",
              "type": "address"
            }
          ],
          "name": "balanceOf",
          "outputs": [
            {
              "internalType": "uint256",
              "name": "",
              "type": "uint256"
            }
          ],
          "stateMutability": "view",
          "type": "function"
        },
        {
          "inputs": [],
          "name": "withdraw",
          "outputs": [],
          "stateMutability": "nonpayable",
          "type": "function"
        },
        {
          "stateMutability": "payable",
          "type": "receive"
        }
      ],
      "evm": {
        "bytecode": {
          "linkReferences": {},
          "object": "6080604052348015600f57600080fd5b506104ff8061001f6000396000f3fe60806040526004361061002d5760003560e01c80633ccfd60b1461008d57806370a08231146100a457610088565b3661008857346000803373ffffffffffffffffffffffffffffffffffffffff1673ffffffffffffffffffffffffffffffffffffffff168152602001908152602001600020600082825461008091906102ac565b925050819055005b600080fd5b34801561009957600080fd5b506100a26100e1565b005b3480156100b057600080fd5b506100cb60048036038101906100c69190610343565b61025b565b6040516100d8919061037f565b60405180910390f35b60008060003373ffffffffffffffffffffffffffffffffffffffff1673ffffffffffffffffffffffffffffffffffffffff16815260200190815260200160002054905060008111610167576040517f08c379a000000000000000000000000000000000000000000000000000000000815260040161015e906103f7565b60405180910390fd5b60003373ffffffffffffffffffffffffffffffffffffffff168260405161018d90610448565b60006040518083038185875af1925050503d80600081146101ca576040519150601f19603f3d011682016040523d82523d6000602084013e6101cf565b606091505b5050905080610213576040517f08c379a000000000000000000000000000000000000000000000000000000000815260040161020a906104a9565b60405180910390fd5b60008060003373ffffffffffffffffffffffffffffffffffffffff1673ffffffffffffffffffffffffffffffffffffffff168152602001908152602001600020819055505050565b60006020528060005260406000206000915090505481565b6000819050919050565b7f4e487b7100000000000000000000000000000000000000000000000000000000600052601160045260246000fd5b60006102b782610273565b91506102c283610273565b92508282019050808211156102da576102d961027d565b5b92915050565b600080fd5b600073ffffffffffffffffffffffffffffffffffffffff82169050919050565b6000610310826102e5565b9050919050565b61032081610305565b811461032b57600080fd5b50565b60008135905061033d81610317565b92915050565b600060208284031215610359576103586102e0565b5b60006103678482850161032e565b91505092915050565b61037981610273565b82525050565b60006020820190506103946000830184610370565b92915050565b600082825260208201905092915050565b7f496e73756666696369656e742062616c616e6365000000000000000000000000600082015250565b60006103e160148361039a565b91506103ec826103ab565b602082019050919050565b60006020820190508181036000830152610410816103d4565b9050919050565b600081905092915050565b50565b6000610432600083610417565b915061043d82610422565b600082019050919050565b600061045382610425565b9150819050919050565b7f6661696c656420746f2073656e64206e61767469766520746f6b656e00000000600082015250565b6000610493601c8361039a565b915061049e8261045d565b602082019050919050565b600060208201905081810360008301526104c281610486565b905091905056fea2646970667358221220fc6bc6d2aa24bc6591fd03f6db33d4a2928e80bf5a25fa44d04f12e33025b8a364736f6c634300081c0033",
          "opcodes": "PUSH1 0x80 PUSH1 0x40 MSTORE CALLVALUE DUP1 ISZERO PUSH1 0xF JUMPI PUSH1 0x0 DUP1 REVERT JUMPDEST POP PUSH2 0x4FF DUP1 PUSH2 0x1F PUSH1 0x0 CODECOPY PUSH1 0x0 RETURN INVALID PUSH1 0x80 PUSH1 0x40 MSTORE PUSH1 0x4 CALLDATASIZE LT PUSH2 0x2D JUMPI PUSH1 0x0 CALLDATALOAD PUSH1 0xE0 SHR DUP1 PUSH4 0x3CCFD60B EQ PUSH2 0x8D JUMPI DUP1 PUSH4 0x70A08231 EQ PUSH2 0xA4 JUMPI PUSH2 0x88 JUMP JUMPDEST CALLDATASIZE PUSH2 0x88 JUMPI CALLVALUE PUSH1 0x0 DUP1 CALLER PUSH20 0xFFFFFFFFFFFFFFFFFFFFFFFFFFFFFFFFFFFFFFFF AND PUSH20 0xFFFFFFFFFFFFFFFFFFFFFFFFFFFFFFFFFFFFFFFF AND DUP2 MSTORE PUSH1 0x20 ADD SWAP1 DUP2 MSTORE PUSH1 0x20 ADD PUSH1 0x0 KECCAK256 PUSH1 0x0 DUP3 DUP3 SLOAD PUSH2 0x80 SWAP2 SWAP1 PUSH2 0x2AC JUMP JUMPDEST SWAP3 POP POP DUP2 SWAP1 SSTORE STOP JUMPDEST PUSH1 0x0 DUP1 REVERT JUMPDEST CALLVALUE DUP1 ISZERO PUSH2 0x99 JUMPI PUSH1 0x0 DUP1 REVERT JUMPDEST POP PUSH2 0xA2 PUSH2 0xE1 JUMP JUMPDEST STOP JUMPDEST CALLVALUE DUP1 ISZERO PUSH2 0xB0 JUMPI PUSH1 0x0 DUP1 REVERT JUMPDEST POP PUSH2 0xCB PUSH1 0x4 DUP1 CALLDATASIZE SUB DUP2 ADD SWAP1 PUSH2 0xC6 SWAP2 SWAP1 PUSH2 0x343 JUMP JUMPDEST PUSH2 0x25B JUMP JUMPDEST PUSH1 0x40 MLOAD PUSH2 0xD8 SWAP2 SWAP1 PUSH2 0x37F JUMP JUMPDEST PUSH1 0x40 MLOAD DUP1 SWAP2 SUB SWAP1 RETURN JUMPDEST PUSH1 0x0 DUP1 PUSH1 0x0 CALLER PUSH20 0xFFFFFFFFFFFFFFFFFFFFFFFFFFFFFFFFFFFFFFFF AND PUSH20 0xFFFFFFFFFFFFFFFFFFFFFFFFFFFFFFFFFFFFFFFF AND DUP2 MSTORE PUSH1 0x20 ADD SWAP1 DUP2 MSTORE PUSH1 0x20 ADD PUSH1 0x0 KECCAK256 SLOAD SWAP1 POP PUSH1 0x0 DUP2 GT PUSH2 0x167 JUMPI PUSH1 0x40 MLOAD PUSH32 0x8C379A000000000000000000000000000000000000000000000000000000000 DUP2 MSTORE PUSH1 0x4 ADD PUSH2 0x15E SWAP1 PUSH2 0x3F7 JUMP JUMPDEST PUSH1 0x40 MLOAD DUP1 SWAP2 SUB SWAP1 REVERT JUMPDEST PUSH1 0x0 CALLER PUSH20 0xFFFFFFFFFFFFFFFFFFFFFFFFFFFFFFFFFFFFFFFF AND DUP3 PUSH1 0x40 MLOAD PUSH2 0x18D SWAP1 PUSH2 0x448 JUMP JUMPDEST PUSH1 0x0 PUSH1 0x40 MLOAD DUP1 DUP4 SUB DUP2 DUP6 DUP8 GAS CALL SWAP3 POP POP POP RETURNDATASIZE DUP1 PUSH1 0x0 DUP2 EQ PUSH2 0x1CA JUMPI PUSH1 0x40 MLOAD SWAP2 POP PUSH1 0x1F NOT PUSH1 0x3F RETURNDATASIZE ADD AND DUP3 ADD PUSH1 0x40 MSTORE RETURNDATASIZE DUP3 MSTORE RETURNDATASIZE PUSH1 0x0 PUSH1 0x20 DUP5 ADD RETURNDATACOPY PUSH2 0x1CF JUMP JUMPDEST PUSH1 0x60 SWAP2 POP JUMPDEST POP POP SWAP1 POP DUP1 PUSH2 0x213 JUMPI PUSH1 0x40 MLOAD PUSH32 0x8C379A000000000000000000000000000000000000000000000000000000000 DUP2 MSTORE PUSH1 0x4 ADD PUSH2 0x20A SWAP1 PUSH2 0x4A9 JUMP JUMPDEST PUSH1 0x40 MLOAD DUP1 SWAP2 SUB SWAP1 REVERT JUMPDEST PUSH1 0x0 DUP1 PUSH1 0x0 CALLER PUSH20 0xFFFFFFFFFFFFFFFFFFFFFFFFFFFFFFFFFFFFFFFF AND PUSH20 0xFFFFFFFFFFFFFFFFFFFFFFFFFFFFFFFFFFFFFFFF AND DUP2 MSTORE PUSH1 0x20 ADD SWAP1 DUP2 MSTORE PUSH1 0x20 ADD PUSH1 0x0 KECCAK256 DUP2 SWAP1 SSTORE POP POP POP JUMP JUMPDEST PUSH1 0x0 PUSH1 0x20 MSTORE DUP1 PUSH1 0x0 MSTORE PUSH1 0x40 PUSH1 0x0 KECCAK256 PUSH1 0x0 SWAP2 POP SWAP1 POP SLOAD DUP2 JUMP JUMPDEST PUSH1 0x0 DUP2 SWAP1 POP SWAP2 SWAP1 POP JUMP JUMPDEST PUSH32 0x4E487B7100000000000000000000000000000000000000000000000000000000 PUSH1 0x0 MSTORE PUSH1 0x11 PUSH1 0x4 MSTORE PUSH1 0x24 PUSH1 0x0 REVERT JUMPDEST PUSH1 0x0 PUSH2 0x2B7 DUP3 PUSH2 0x273 JUMP JUMPDEST SWAP2 POP PUSH2 0x2C2 DUP4 PUSH2 0x273 JUMP JUMPDEST SWAP3 POP DUP3 DUP3 ADD SWAP1 POP DUP1 DUP3 GT ISZERO PUSH2 0x2DA JUMPI PUSH2 0x2D9 PUSH2 0x27D JUMP JUMPDEST JUMPDEST SWAP3 SWAP2 POP POP JUMP JUMPDEST PUSH1 0x0 DUP1 REVERT JUMPDEST PUSH1 0x0 PUSH20 0xFFFFFFFFFFFFFFFFFFFFFFFFFFFFFFFFFFFFFFFF DUP3 AND SWAP1 POP SWAP2 SWAP1 POP JUMP JUMPDEST PUSH1 0x0 PUSH2 0x310 DUP3 PUSH2 0x2E5 JUMP JUMPDEST SWAP1 POP SWAP2 SWAP1 POP JUMP JUMPDEST PUSH2 0x320 DUP2 PUSH2 0x305 JUMP JUMPDEST DUP2 EQ PUSH2 0x32B JUMPI PUSH1 0x0 DUP1 REVERT JUMPDEST POP JUMP JUMPDEST PUSH1 0x0 DUP2 CALLDATALOAD SWAP1 POP PUSH2 0x33D DUP2 PUSH2 0x317 JUMP JUMPDEST SWAP3 SWAP2 POP POP JUMP JUMPDEST PUSH1 0x0 PUSH1 0x20 DUP3 DUP5 SUB SLT ISZERO PUSH2 0x359 JUMPI PUSH2 0x358 PUSH2 0x2E0 JUMP JUMPDEST JUMPDEST PUSH1 0x0 PUSH2 0x367 DUP5 DUP3 DUP6 ADD PUSH2 0x32E JUMP JUMPDEST SWAP2 POP POP SWAP3 SWAP2 POP POP JUMP JUMPDEST PUSH2 0x379 DUP2 PUSH2 0x273 JUMP JUMPDEST DUP3 MSTORE POP POP JUMP JUMPDEST PUSH1 0x0 PUSH1 0x20 DUP3 ADD SWAP1 POP PUSH2 0x394 PUSH1 0x0 DUP4 ADD DUP5 PUSH2 0x370 JUMP JUMPDEST SWAP3 SWAP2 POP POP JUMP JUMPDEST PUSH1 0x0 DUP3 DUP3 MSTORE PUSH1 0x20 DUP3 ADD SWAP1 POP SWAP3 SWAP2 POP POP JUMP JUMPDEST PUSH32 0x496E73756666696369656E742062616C616E6365000000000000000000000000 PUSH1 0x0 DUP3 ADD MSTORE POP JUMP JUMPDEST PUSH1 0x0 PUSH2 0x3E1 PUSH1 0x14 DUP4 PUSH2 0x39A JUMP JUMPDEST SWAP2 POP PUSH2 0x3EC DUP3 PUSH2 0x3AB JUMP JUMPDEST PUSH1 0x20 DUP3 ADD SWAP1 POP SWAP2 SWAP1 POP JUMP JUMPDEST PUSH1 0x0 PUSH1 0x20 DUP3 ADD SWAP1 POP DUP2 DUP2 SUB PUSH1 0x0 DUP4 ADD MSTORE PUSH2 0x410 DUP2 PUSH2 0x3D4 JUMP JUMPDEST SWAP1 POP SWAP2 SWAP1 POP JUMP JUMPDEST PUSH1 0x0 DUP2 SWAP1 POP SWAP3 SWAP2 POP POP JUMP JUMPDEST POP JUMP JUMPDEST PUSH1 0x0 PUSH2 0x432 PUSH1 0x0 DUP4 PUSH2 0x417 JUMP JUMPDEST SWAP2 POP PUSH2 0x43D DUP3 PUSH2 0x422 JUMP JUMPDEST PUSH1 0x0 DUP3 ADD SWAP1 POP SWAP2 SWAP1 POP JUMP JUMPDEST PUSH1 0x0 PUSH2 0x453 DUP3 PUSH2 0x425 JUMP JUMPDEST SWAP2 POP DUP2 SWAP1 POP SWAP2 SWAP1 POP JUMP JUMPDEST PUSH32 0x6661696C656420746F2073656E64206E61767469766520746F6B656E00000000 PUSH1 0x0 DUP3 ADD MSTORE POP JUMP JUMPDEST PUSH1 0x0 PUSH2 0x493 PUSH1 0x1C DUP4 PUSH2 0x39A JUMP JUMPDEST SWAP2 POP PUSH2 0x49E DUP3 PUSH2 0x45D JUMP JUMPDEST PUSH1 0x20 DUP3 ADD SWAP1 POP SWAP2 SWAP1 POP JUMP JUMPDEST PUSH1 0x0 PUSH1 0x20 DUP3 ADD SWAP1 POP DUP2 DUP2 SUB PUSH1 0x0 DUP4 ADD MSTORE PUSH2 0x4C2 DUP2 PUSH2 0x486 JUMP JUMPDEST SWAP1 POP SWAP2 SWAP1 POP JUMP INVALID LOG2 PUSH5 0x6970667358 0x22 SLT KECCAK256 0xFC PUSH12 0xC6D2AA24BC6591FD03F6DB33 0xD4 LOG2 SWAP3 DUP15 DUP1 0xBF GAS 0x25 STATICCALL PREVRANDAO 0xD0 0x4F SLT 0xE3 ADDRESS 0x25 0xB8 LOG3 PUSH5 0x736F6C6343 STOP ADDMOD SHR STOP CALLER "
        },
        "methodIdentifiers": {
          "balanceOf(address)": "70a08231",
          "withdraw()": "3ccfd60b"
        }
      }
    }
  }
}