{
  "_format": "hh-sol-artifact-1",
  "contractName": "TinyBank",
  "sourceName": "contracts/TinyBank.sol",
  "abi": [
    {
      "inputs": [
        {
          "internalType": "contract IMyToken",
          "name": "_stakingToken",
          "type": "address"
        },
        {
          "internalType": "address[5]",
          "name": "_managers",
          "type": "address[5]"
        }
      ],
      "stateMutability": "nonpayable",
      "type": "constructor"
    },
    {
      "anonymous": false,
      "inputs": [
        {
          "indexed": true,
          "internalType": "address",
          "name": "from",
          "type": "address"
        },
        {
          "indexed": false,
          "internalType": "uint256",
          "name": "amount",
          "type": "uint256"
        }
      ],
      "name": "Stake",
      "type": "event"
    },
    {
      "anonymous": false,
      "inputs": [
        {
          "indexed": false,
          "internalType": "uint256",
          "name": "amount",
          "type": "uint256"
        },
        {
          "indexed": true,
          "internalType": "address",
          "name": "to",
          "type": "address"
        }
      ],
      "name": "Withdraw",
      "type": "event"
    },
    {
      "inputs": [],
      "name": "MANAGER_NUMBERS",
      "outputs": [
        {
          "internalType": "uint256",
          "name": "",
          "type": "uint256"
        }
      ],
      "stateMutability": "view",
      "type": "function"
    },
    {
      "inputs": [],
      "name": "allConfirmed",
      "outputs": [
        {
          "internalType": "bool",
          "name": "",
          "type": "bool"
        }
      ],
      "stateMutability": "view",
      "type": "function"
    },
    {
      "inputs": [],
      "name": "confirm",
      "outputs": [],
      "stateMutability": "nonpayable",
      "type": "function"
    },
    {
      "inputs": [
        {
          "internalType": "uint256",
          "name": "",
          "type": "uint256"
        }
      ],
      "name": "confirmed",
      "outputs": [
        {
          "internalType": "bool",
          "name": "",
          "type": "bool"
        }
      ],
      "stateMutability": "view",
      "type": "function"
    },
    {
      "inputs": [
        {
          "internalType": "address",
          "name": "account",
          "type": "address"
        }
      ],
      "name": "isManager",
      "outputs": [
        {
          "internalType": "bool",
          "name": "",
          "type": "bool"
        }
      ],
      "stateMutability": "view",
      "type": "function"
    },
    {
      "inputs": [
        {
          "internalType": "address",
          "name": "",
          "type": "address"
        }
      ],
      "name": "lastClaimedBlock",
      "outputs": [
        {
          "internalType": "uint256",
          "name": "",
          "type": "uint256"
        }
      ],
      "stateMutability": "view",
      "type": "function"
    },
    {
      "inputs": [
        {
          "internalType": "uint256",
          "name": "",
          "type": "uint256"
        }
      ],
      "name": "managers",
      "outputs": [
        {
          "internalType": "address",
          "name": "",
          "type": "address"
        }
      ],
      "stateMutability": "view",
      "type": "function"
    },
    {
      "inputs": [],
      "name": "owner",
      "outputs": [
        {
          "internalType": "address",
          "name": "",
          "type": "address"
        }
      ],
      "stateMutability": "view",
      "type": "function"
    },
    {
      "inputs": [],
      "name": "rewardPerBlock",
      "outputs": [
        {
          "internalType": "uint256",
          "name": "",
          "type": "uint256"
        }
      ],
      "stateMutability": "view",
      "type": "function"
    },
    {
      "inputs": [
        {
          "internalType": "uint256",
          "name": "_amount",
          "type": "uint256"
        }
      ],
      "name": "setRewardPerBlock",
      "outputs": [],
      "stateMutability": "nonpayable",
      "type": "function"
    },
    {
      "inputs": [
        {
          "internalType": "uint256",
          "name": "_amount",
          "type": "uint256"
        }
      ],
      "name": "stake",
      "outputs": [],
      "stateMutability": "nonpayable",
      "type": "function"
    },
    {
      "inputs": [
        {
          "internalType": "address",
          "name": "",
          "type": "address"
        }
      ],
      "name": "staked",
      "outputs": [
        {
          "internalType": "uint256",
          "name": "",
          "type": "uint256"
        }
      ],
      "stateMutability": "view",
      "type": "function"
    },
    {
      "inputs": [],
      "name": "stakingToken",
      "outputs": [
        {
          "internalType": "contract IMyToken",
          "name": "",
          "type": "address"
        }
      ],
      "stateMutability": "view",
      "type": "function"
    },
    {
      "inputs": [],
      "name": "totalstaked",
      "outputs": [
        {
          "internalType": "uint256",
          "name": "",
          "type": "uint256"
        }
      ],
      "stateMutability": "view",
      "type": "function"
    },
    {
      "inputs": [
        {
          "internalType": "uint256",
          "name": "_amount",
          "type": "uint256"
        }
      ],
      "name": "withdraw",
      "outputs": [],
      "stateMutability": "nonpayable",
      "type": "function"
    }
  ],
  "bytecode": "0x6080604052670de0b6b3a764000060095534801561001c57600080fd5b5060405161176d38038061176d833981810160405281019061003e919061034a565b3381816000806101000a81548173ffffffffffffffffffffffffffffffffffffffff021916908373ffffffffffffffffffffffffffffffffffffffff16021790555060005b60058110156101045781816005811061009f5761009e61038a565b5b6020020151600182600581106100b8576100b761038a565b5b0160006101000a81548173ffffffffffffffffffffffffffffffffffffffff021916908373ffffffffffffffffffffffffffffffffffffffff1602179055508080600101915050610083565b50505081600760006101000a81548173ffffffffffffffffffffffffffffffffffffffff021916908373ffffffffffffffffffffffffffffffffffffffff160217905550600954600a8190555050506103b9565b6000604051905090565b600080fd5b600073ffffffffffffffffffffffffffffffffffffffff82169050919050565b600061019282610167565b9050919050565b60006101a482610187565b9050919050565b6101b481610199565b81146101bf57600080fd5b50565b6000815190506101d1816101ab565b92915050565b600080fd5b6000601f19601f8301169050919050565b7f4e487b7100000000000000000000000000000000000000000000000000000000600052604160045260246000fd5b610225826101dc565b810181811067ffffffffffffffff82111715610244576102436101ed565b5b80604052505050565b6000610257610158565b9050610263828261021c565b919050565b600067ffffffffffffffff821115610283576102826101ed565b5b602082029050919050565b600080fd5b61029c81610187565b81146102a757600080fd5b50565b6000815190506102b981610293565b92915050565b60006102d26102cd84610268565b61024d565b905080602084028301858111156102ec576102eb61028e565b5b835b81811015610315578061030188826102aa565b8452602084019350506020810190506102ee565b5050509392505050565b600082601f830112610334576103336101d7565b5b60056103418482856102bf565b91505092915050565b60008060c0838503121561036157610360610162565b5b600061036f858286016101c2565b92505060206103808582860161031f565b9150509250929050565b7f4e487b7100000000000000000000000000000000000000000000000000000000600052603260045260246000fd5b6113a5806103c86000396000f3fe608060405234801561001057600080fd5b50600436106100f55760003560e01c80638ae39cac11610097578063bb872b4a11610066578063bb872b4a14610250578063c19e82d51461026c578063f3ac27321461029c578063f3ae2415146102cc576100f5565b80638ae39cac146101c85780638da5cb5b146101e657806398807d8414610204578063a694fc3a14610234576100f5565b80635cf9e7d6116100d35780635cf9e7d6146101645780636f33d9ed146101825780637022b58e146101a057806372f702f3146101aa576100f5565b80632c509697146100fa5780632e1a7d4d146101185780633d39c26014610134575b600080fd5b6101026102fc565b60405161010f9190610e08565b60405180910390f35b610132600480360381019061012d9190610e54565b610301565b005b61014e60048036038101906101499190610e54565b6106aa565b60405161015b9190610ec2565b60405180910390f35b61016c6106e0565b6040516101799190610ef8565b60405180910390f35b61018a61073f565b6040516101979190610e08565b60405180910390f35b6101a8610745565b005b6101b261084b565b6040516101bf9190610f72565b60405180910390f35b6101d0610871565b6040516101dd9190610e08565b60405180910390f35b6101ee610877565b6040516101fb9190610ec2565b60405180910390f35b61021e60048036038101906102199190610fb9565b61089b565b60405161022b9190610e08565b60405180910390f35b61024e60048036038101906102499190610e54565b6108b3565b005b61026a60048036038101906102659190610e54565b610c20565b005b61028660048036038101906102819190610fb9565b610cc1565b6040516102939190610e08565b60405180910390f35b6102b660048036038101906102b19190610e54565b610cd9565b6040516102c39190610ef8565b60405180910390f35b6102e660048036038101906102e19190610fb9565b610d03565b6040516102f39190610ef8565b60405180910390f35b600581565b336000600b60008373ffffffffffffffffffffffffffffffffffffffff1673ffffffffffffffffffffffffffffffffffffffff168152602001908152602001600020541115610494576000600860008373ffffffffffffffffffffffffffffffffffffffff1673ffffffffffffffffffffffffffffffffffffffff16815260200190815260200160002054436103979190611015565b90506000600c54600b60008573ffffffffffffffffffffffffffffffffffffffff1673ffffffffffffffffffffffffffffffffffffffff16815260200190815260200160002054600a54846103ec9190611049565b6103f69190611049565b61040091906110ba565b9050600760009054906101000a900473ffffffffffffffffffffffffffffffffffffffff1673ffffffffffffffffffffffffffffffffffffffff166394bf804d82856040518363ffffffff1660e01b815260040161045f9291906110eb565b600060405180830381600087803b15801561047957600080fd5b505af115801561048d573d6000803e3d6000fd5b5050505050505b43600860008373ffffffffffffffffffffffffffffffffffffffff1673ffffffffffffffffffffffffffffffffffffffff1681526020019081526020016000208190555081600b60003373ffffffffffffffffffffffffffffffffffffffff1673ffffffffffffffffffffffffffffffffffffffff16815260200190815260200160002054101561055a576040517f08c379a000000000000000000000000000000000000000000000000000000000815260040161055190611171565b60405180910390fd5b600760009054906101000a900473ffffffffffffffffffffffffffffffffffffffff1673ffffffffffffffffffffffffffffffffffffffff1663b7760c8f83336040518363ffffffff1660e01b81526004016105b79291906110eb565b600060405180830381600087803b1580156105d157600080fd5b505af11580156105e5573d6000803e3d6000fd5b5050505081600b60003373ffffffffffffffffffffffffffffffffffffffff1673ffffffffffffffffffffffffffffffffffffffff16815260200190815260200160002060008282546106389190611015565b9250508190555081600c60008282546106519190611015565b925050819055503373ffffffffffffffffffffffffffffffffffffffff167f8353ffcac0876ad14e226d9783c04540bfebf13871e868157d2a391cad98e9188360405161069e9190610e08565b60405180910390a25050565b600181600581106106ba57600080fd5b016000915054906101000a900473ffffffffffffffffffffffffffffffffffffffff1681565b600080600090505b6005811015610736576006816005811061070557610704611191565b5b602091828204019190069054906101000a900460ff1661072957600091505061073c565b80806001019150506106e8565b50600190505b90565b600c5481565b61074e33610d03565b61078d576040517f08c379a00000000000000000000000000000000000000000000000000000000081526004016107849061120c565b60405180910390fd5b60005b600581101561084857600181600581106107ad576107ac611191565b5b0160009054906101000a900473ffffffffffffffffffffffffffffffffffffffff1673ffffffffffffffffffffffffffffffffffffffff163373ffffffffffffffffffffffffffffffffffffffff160361083b5760016006826005811061081757610816611191565b5b602091828204019190066101000a81548160ff021916908315150217905550610848565b8080600101915050610790565b50565b600760009054906101000a900473ffffffffffffffffffffffffffffffffffffffff1681565b600a5481565b60008054906101000a900473ffffffffffffffffffffffffffffffffffffffff1681565b600b6020528060005260406000206000915090505481565b336000600b60008373ffffffffffffffffffffffffffffffffffffffff1673ffffffffffffffffffffffffffffffffffffffff168152602001908152602001600020541115610a46576000600860008373ffffffffffffffffffffffffffffffffffffffff1673ffffffffffffffffffffffffffffffffffffffff16815260200190815260200160002054436109499190611015565b90506000600c54600b60008573ffffffffffffffffffffffffffffffffffffffff1673ffffffffffffffffffffffffffffffffffffffff16815260200190815260200160002054600a548461099e9190611049565b6109a89190611049565b6109b291906110ba565b9050600760009054906101000a900473ffffffffffffffffffffffffffffffffffffffff1673ffffffffffffffffffffffffffffffffffffffff166394bf804d82856040518363ffffffff1660e01b8152600401610a119291906110eb565b600060405180830381600087803b158015610a2b57600080fd5b505af1158015610a3f573d6000803e3d6000fd5b5050505050505b43600860008373ffffffffffffffffffffffffffffffffffffffff1673ffffffffffffffffffffffffffffffffffffffff168152602001908152602001600020819055506000821015610ace576040517f08c379a0000000000000000000000000000000000000000000000000000000008152600401610ac590611278565b60405180910390fd5b600760009054906101000a900473ffffffffffffffffffffffffffffffffffffffff1673ffffffffffffffffffffffffffffffffffffffff166323b872dd3330856040518463ffffffff1660e01b8152600401610b2d93929190611298565b600060405180830381600087803b158015610b4757600080fd5b505af1158015610b5b573d6000803e3d6000fd5b5050505081600b60003373ffffffffffffffffffffffffffffffffffffffff1673ffffffffffffffffffffffffffffffffffffffff1681526020019081526020016000206000828254610bae91906112cf565b9250508190555081600c6000828254610bc791906112cf565b925050819055503373ffffffffffffffffffffffffffffffffffffffff167febedb8b3c678666e7f36970bc8f57abf6d8fa2e828c0da91ea5b75bf68ed101a83604051610c149190610e08565b60405180910390a25050565b610c2933610d03565b610c68576040517f08c379a0000000000000000000000000000000000000000000000000000000008152600401610c5f9061120c565b60405180910390fd5b610c706106e0565b610caf576040517f08c379a0000000000000000000000000000000000000000000000000000000008152600401610ca69061134f565b60405180910390fd5b80600a81905550610cbe610d9e565b50565b60086020528060005260406000206000915090505481565b60068160058110610ce957600080fd5b60209182820401919006915054906101000a900460ff1681565b600080600090505b6005811015610d935760018160058110610d2857610d27611191565b5b0160009054906101000a900473ffffffffffffffffffffffffffffffffffffffff1673ffffffffffffffffffffffffffffffffffffffff168373ffffffffffffffffffffffffffffffffffffffff1603610d86576001915050610d99565b8080600101915050610d0b565b50600090505b919050565b60005b6005811015610dec57600060068260058110610dc057610dbf611191565b5b602091828204019190066101000a81548160ff0219169083151502179055508080600101915050610da1565b50565b6000819050919050565b610e0281610def565b82525050565b6000602082019050610e1d6000830184610df9565b92915050565b600080fd5b610e3181610def565b8114610e3c57600080fd5b50565b600081359050610e4e81610e28565b92915050565b600060208284031215610e6a57610e69610e23565b5b6000610e7884828501610e3f565b91505092915050565b600073ffffffffffffffffffffffffffffffffffffffff82169050919050565b6000610eac82610e81565b9050919050565b610ebc81610ea1565b82525050565b6000602082019050610ed76000830184610eb3565b92915050565b60008115159050919050565b610ef281610edd565b82525050565b6000602082019050610f0d6000830184610ee9565b92915050565b6000819050919050565b6000610f38610f33610f2e84610e81565b610f13565b610e81565b9050919050565b6000610f4a82610f1d565b9050919050565b6000610f5c82610f3f565b9050919050565b610f6c81610f51565b82525050565b6000602082019050610f876000830184610f63565b92915050565b610f9681610ea1565b8114610fa157600080fd5b50565b600081359050610fb381610f8d565b92915050565b600060208284031215610fcf57610fce610e23565b5b6000610fdd84828501610fa4565b91505092915050565b7f4e487b7100000000000000000000000000000000000000000000000000000000600052601160045260246000fd5b600061102082610def565b915061102b83610def565b925082820390508181111561104357611042610fe6565b5b92915050565b600061105482610def565b915061105f83610def565b925082820261106d81610def565b9150828204841483151761108457611083610fe6565b5b5092915050565b7f4e487b7100000000000000000000000000000000000000000000000000000000600052601260045260246000fd5b60006110c582610def565b91506110d083610def565b9250826110e0576110df61108b565b5b828204905092915050565b60006040820190506111006000830185610df9565b61110d6020830184610eb3565b9392505050565b600082825260208201905092915050565b7f696e73756666696369656e74207374616b656420746f6b656e00000000000000600082015250565b600061115b601983611114565b915061116682611125565b602082019050919050565b6000602082019050818103600083015261118a8161114e565b9050919050565b7f4e487b7100000000000000000000000000000000000000000000000000000000600052603260045260246000fd5b7f596f7520617265206e6f742061206d616e616765720000000000000000000000600082015250565b60006111f6601583611114565b9150611201826111c0565b602082019050919050565b60006020820190508181036000830152611225816111e9565b9050919050565b7f63616e6e6f74207374616b65203020616d6f756e740000000000000000000000600082015250565b6000611262601583611114565b915061126d8261122c565b602082019050919050565b6000602082019050818103600083015261129181611255565b9050919050565b60006060820190506112ad6000830186610eb3565b6112ba6020830185610eb3565b6112c76040830184610df9565b949350505050565b60006112da82610def565b91506112e583610def565b92508282019050808211156112fd576112fc610fe6565b5b92915050565b7f4e6f7420616c6c20636f6e6669726d6564207965740000000000000000000000600082015250565b6000611339601583611114565b915061134482611303565b602082019050919050565b600060208201905081810360008301526113688161132c565b905091905056fea2646970667358221220d2d0150f991c7ac7e5658362931ad6138cfa30bdf29002ada5ba447484083cb764736f6c634300081c0033",
  "linkReferences": {},
  "deployedLinkReferences": {}
}